:100000000C946C000C9489000C9489000C94890069
:100010000C9489000C9489000C9489000C9489003C
:100020000C9489000C9489000C9489000C9489002C
:100030000C9489000C9489000C9489000C9489001C
:100040000C9489000C9489000C9489000C9489000C
:100050000C9489000C9489000C9489000C948900FC
:100060000C9489000C94890012022C0212021202D4
:100070004A024A024A024A024A024A024A024A0220
:100080004A024A024A0212024A024A0212024A0280
:100090004A024A02120212024A024A024A024A0270
:1000A0004A024A024A024A0212022C0212021202B6
:1000B0004A0204024A024A024A024A024A0212025E
:1000C0004A02EF014A0212024A02FD011202F6013F
:1000D00012020B021202120211241FBECFEFD4E053
:1000E000DEBFCDBF11E0A0E0B1E0E4EFFEE102C071
:1000F00005900D92A83DB107D9F711E0A8EDB1E048
:1001000001C01D92A23EB107E1F70E94B5090C940F
:10011000780F0C940000CF93C62F8136910509F417
:1001200044C0FCF48035910509F4B8C06CF4833404
:10013000910509F4A5C08434910509F47CC081348B
:10014000910509F0C4C038C08735910509F44AC04B
:100150008835910509F482C08335910509F0B7C04F
:1001600057C08037910509F492C06CF4843691052C
:1001700009F455C08C36910509F497C08336910572
:1001800009F0A5C076C08537910509F499C02CF413
:100190008337910509F09BC034C08737910599F0EA
:1001A0008837910509F093C052C0862F992787FDA3
:1001B00090950E94620C7FC0862F992787FD9095AD
:1001C0000E94620C51C0862F992787FD90950E944E
:1001D000550C21E030E0892B09F07BC0CF3509F4C4
:1001E00078C075C0862F992787FD90950E94550C81
:1001F000892B09F06CC021E030E0CF3509F069C0EF
:1002000066C0862F992787FD90950E94830C53C066
:10021000862F992787FD90950E94830C25C077270C
:1002200067FD70956053710921E030E06A30710517
:1002300008F44FC04CC0772767FD70956053710973
:1002400021E030E06A30710508F043C040C0862FDD
:10025000992787FD90950E94690C2DC0862F9927BC
:1002600087FD90950E94690C21E030E0892B89F18F
:100270002EC0862F992787FD90950E94740C1BC075
:10028000862F992787FD90950E94740CEDCF862FBD
:10029000992787FD90950E948B0C0DC0862F99277A
:1002A00087FD90950E948B0CDFCF862F992787FDC5
:1002B00090950E94630C21E030E0892B51F407C037
:1002C000862F992787FD90950E94600CF4CF20E03F
:1002D00030E0C901CF910895EF92FF920F931F93E1
:1002E000CF93DF93EC017B01623081E0780739F432
:1002F00008891989C8010196998B888B02C00FEF74
:100300001FEF6C857D858E859F85861797077CF00E
:10031000660F771F7D876C87E3E0660F771FEA958E
:10032000E1F78A859B850E944C0B8A879B872E85E7
:100330003F85C90143E0880F991F4A95E1F7EA8597
:10034000FB85E80FF91FF182E0828FEF9FEF938327
:1003500082831583048397838683C90101969F87CF
:100360008E87C901DF91CF911F910F91FF90EF9080
:100370000895DC015896ED91FC915997309711F052
:10038000718360836FEF7FEFFC01868997890E94FC
:10039000340CEF92FF920F931F93CF93DF93EC01F6
:1003A000CB010C811D81F80120812C3509F07BC027
:1003B00098012F5F3F4F3D832C83F1804F2D5527B0
:1003C00047FD5095652F752FFA01E154F109E83387
:1003D000F10508F05FC0EC5CFF4F0C940F0A0E5F54
:1003E0001F4F1D830C836AE070E070C00E5F1F4FCB
:1003F0001D830C8369E070E069C00E5F1F4F1D8391
:100400000C836DE070E062C00E5F1F4F1D830C8394
:100410006CE070E05BC00E5F1F4F1D830C836BE0D0
:1004200070E054C00E5F1F4F1D830C8366E071E0C7
:10043000CE010E946C019C01A3E0880F991FAA9530
:10044000E1F7EA85FB85E80FF91F6F2D772767FD38
:1004500070957383628343C0892BE1F46CE071E093
:10046000CE010E946C019C01F3E0880F991FFA9560
:10047000E1F7AA85BB85A80FB91FEC81FD818191A9
:10048000992787FD909513969C938E931297FD83E1
:10049000EC8325C00E5F1F4F1D830C836F2D7727C4
:1004A00067FD709513C0E22EFF24E7FCF094C701AE
:1004B0000E947D0C892B29F462E471E0CE010E9438
:1004C000B9010F5F1F4F1D830C83B701CE01DF9170
:1004D000CF911F910F91FF90EF900C946C01C90187
:1004E000DF91CF911F910F91FF90EF900895DC0164
:1004F0001496ED91FC9115972081332727FD3095B7
:100500002617370721F062E571E00E94B9013196A4
:10051000DC011596FC93EE9314970895FC01A081DD
:10052000B1812D91332727FD309520533109B183B7
:10053000A0838AE00BC0B901869F9001879F300D90
:100540001124240F351F1196B183A083A081B1819E
:100550004C91552747FD5095405351094A3051055C
:1005600050F3C90108954F925F926F927F928F92DC
:100570009F92AF92BF92CF92DF92EF92FF920F9332
:100580001F93CF93DF931F92CDB7DEB72C01DC0111
:100590001496ED91FC9115978081883261F024F4D6
:1005A000843209F08FC179C18E3209F47FC18B3555
:1005B00009F088C132C0CF010196D20115969C93F3
:1005C0008E93149781818F3369F432961596FC933C
:1005D000EE9314976AE370E0C2010E94770263E031
:1005E00071E002C062E071E0C2010E946C018C0106
:1005F000C2010E942505980143E0220F331F4A954E
:10060000E1F7D2011A96ED91FC911B97E20FF31FCF
:100610009383828369E270E03CC1CF010196D201ED
:1006200015969C938E93149781818E3569F467E0BB
:1006300071E0C2010E946C018C01F20184819581FC
:1006400001969583848306C065E071E0C2010E9433
:100650006C018C01D2011496ED91FC91159780816B
:100660008D3509F0DEC061E671E021C02D3209F060
:10067000B7C0BFEFEB16FB0609F4CAC03196D20132
:100680001596FC93EE93149768E071E0C2010E9406
:100690006C014C01F201C480D580D6018C91992760
:1006A00087FD90958E159F052CF46DE671E0C201D3
:1006B0000E94B901F20162847384F70183E0EE0FB6
:1006C000FF1F8A95E1F7E60DF71D80819181863045
:1006D000F1E09F0719F46BE771E0E9CF7401B3E033
:1006E000EE0CFF1CBA95E1F7E60CF71CD701139648
:1006F0009C938E931297F60120812C3509F046C009
:10070000C6010196D20115969C938E931497218170
:10071000223721F1C601029623372CF4263641F107
:100720002E3659F50CC02437A1F0263731F5B2E04A
:10073000CB0ED11CF201D582C4822BE03AC0F2E08C
:10074000CF0ED11CD2011596DC92CE9214972AE0DE
:1007500030C0F2019583848329E02BC0F2E0CF0EF4
:10076000D11CD2011596DC92CE9214972DE021C0B7
:10077000F201958384832CE01CC0F2E0CF0ED11CE3
:10078000D2011596DC92CE92149713C0822F99272E
:1007900087FD909529830E947D0C2981892B19F46E
:1007A00062E471E084CFBFEFCB1ADB0AF201D5829D
:1007B000C482822F992787FD9095D70115969C9327
:1007C0008E931497F501A3E0EE0FFF1FAA95E1F7B2
:1007D000E60DF71D9782868274018FEF9FEF1EC092
:1007E000BFEFEB16FB06A1F0E3E0AA0CBB1CEA95F9
:1007F000E1F7D2011A96ED91FC911B97EA0DFB1DD2
:10080000F782E68261E070E0C2010E94C90106C081
:1008100061E070E0C2010E94C901750157017C01CD
:1008200004C05801EE24EA94FE2CD2011496ED91F6
:10083000FC91159720812D3541F4F2018285938535
:10084000FFEFEF16FF0649F412C0D2018D919C9183
:10085000E817F90709F00ACFF0CFF50173E0EE0FC2
:10086000FF1F7A95E1F7E80FF91FF782E682F8019A
:1008700063E0EE0FFF1F6A95E1F7E80FF91F86812D
:100880009781938382838FEF9FEF978386836DE5B4
:1008900070E0C2010E9477021BC03196D20115960A
:1008A000FC93EE9314976AE071E008C03196D20190
:1008B0001596FC93EE93149764E071E0C2010E94D8
:1008C0006C0105C060E070E0C2010E94C9018C01AA
:1008D000D2011496ED91FC91159780818B3259F0DD
:1008E00024F48A3209F063C006C08F3371F08B376D
:1008F00009F05DC014C03196D2011596FC93EE93B9
:100900001497EE24EA94FE2C75C03196D201159608
:10091000FC93EE931497EE24E394F12C6BC0CF017B
:100920000196D20115969C938E93149781819927F5
:1009300087FD9095C0970A9718F062EA71E0B7CEEC
:100940007201B4E0EB0EF11CC7010E948E02F201AD
:1009500044815581FA0121912C3249F02D3721F53E
:10096000D2011596FC93EE9314977C0143C0D201FB
:100970001596FC93EE931497FA012181332727FDF6
:100980003095205331092A30310528F4C7010E94DF
:100990008E027C0103C0EE24EA94FE2C6DE770E029
:1009A000C2010E94770226C062EB71E080CED201C4
:1009B0001496ED91FC91159780818C3799F18932CD
:1009C00089F18A3279F18B3269F1882359F1C201B8
:1009D0000E94B302980143E0220F331F4A95E1F7CA
:1009E000D2011A96ED91FC911B97E20FF31F9783AA
:1009F000868318C060E071E0C2010E946C019C0116
:100A0000B3E0220F331FBA95E1F7D2011A96ED91A8
:100A1000FC911B97E20FF31F13830283F582E4829C
:100A20008C01C5CFC8010F90DF91CF911F910F911D
:100A3000FF90EF90DF90CF90BF90AF909F908F90FE
:100A40007F906F905F904F900895CF92DF92EF92DA
:100A5000FF920F931F93CF93DF93EC01EC81FD8105
:100A600080818E3551F43196FD83EC836BE071E02B
:100A7000CE010E946C018C0102C00FEF1FEFCE016E
:100A80000E94B3020F3F2FEF120769F0980163E055
:100A9000220F331F6A95E1F7EA85FB85E20FF31F0A
:100AA0008683978301C08C01EC81FD8180818C3726
:100AB000F9F43196FD83EC8361E071E0CE010E9490
:100AC0006C017C016C0153E0CC0CDD1C5A95E1F704
:100AD000EA85FB85EC0DFD1D13830283CE010E9488
:100AE0002505EA85FB85EC0DFD1D95838483870133
:100AF000C801DF91CF911F910F91FF90EF90DF9090
:100B0000CF9008952F923F924F925F926F927F9273
:100B10008F929F92AF92BF92CF92DF92EF92FF920D
:100B20000F931F93CF93DF93EC018B016A0129018F
:100B3000FB01E080F180F5E0EF16F1E0FF0609F43B
:100B400006C2B4F434E0E31631E0F3060CF0FBC166
:100B500042E0E41641E0F4060CF01FC1E11481E02C
:100B6000F80639F1E1E0EE16FE0609F041C2C4C014
:100B7000FAE0EF16F1E0FF0609F4DEC16CF436E0AE
:100B8000E31631E0F30609F429C247E0E41641E038
:100B9000F40609F02DC2DBC18BE0E81681E0F8060F
:100BA00009F4C7C1ECE0EE16E1E0FE0609F020C250
:100BB00077C1FB0184809580770C6608762C86814E
:100BC00097818F3FFFEF9F0709F476C033E0880FCE
:100BD000991F3A95E1F7AA84BB84A80EB91E6DC08F
:100BE000F8018281938123E0880F991F2A95E1F70C
:100BF0006A857B85680F791F9501432D522DCE01A3
:100C00000E9482056C01009709F45FC0FFEFEF1AA4
:100C1000FF0AA114B10449F488819981C816D90644
:100C200008F055C03C2C2D2C4CC0F50180819181E1
:100C30008115914041F4F50184819581990F880BCC
:100C4000982F892B49F3F501868197818F3FFFEF1C
:100C50009F0709F00AC04114510489F0F20186810E
:100C600097818F3FFFEF9F0751F0A3E0880F991FF7
:100C7000AA95E1F72A853B85280F391F02C020E09D
:100C800030E0A601B501CE010E948205892B21F238
:100C90006814790421F46E147F0409F4C2C1E614C7
:100CA000F7040CF4B9CF2FEF8216920681F08E1460
:100CB0009F040CF4B1CF0BC052013C2C2D2CE12C25
:100CC000F12CE814F9040CF48BCFC32CD22C68144B
:100CD000790421F46E147F0409F4A3C1E614F70427
:100CE0000CF4B0C03FEF8316930609F49AC18E143A
:100CF0009F040CF096C1A6C0FB0182819381F3E0B2
:100D0000880F991FFA95E1F7EA84FB84E80EF91E33
:100D1000C60111C0F701268137812F3FFFEF3F0742
:100D200009F46FC1E3E0220F331FEA95E1F7EA848B
:100D3000FB84E20EF31E20E030E0AC01B701CE01EF
:100D40000E948205009731F7F8018481958173E054
:100D5000880F991F7A95E1F70A851B85080F191FDF
:100D6000A60111C0F801868197818F3FFFEF9F0791
:100D700009F494C063E0880F991F6A95E1F70A852A
:100D80001B85080F191F20E030E0B801CE010E943A
:100D90008205AC01009731F755C0FB018281938138
:100DA00043E0880F991F4A95E1F7AA84BB84A80EF7
:100DB000B91EF3E0EF16F1E0FF06C1F0FB0104817C
:100DC00015818C899D890817190781F4C801880F3E
:100DD000991F880F991FEA89FB89E80FF91FD182B3
:100DE000C082C80101969D8B8C8B02C00FEF1FEF54
:100DF000A601F501868197818F3FFFEF9F0751F094
:100E000023E0880F991F2A95E1F72A853B85280F53
:100E1000391F01C09201B501CE010E948205AC01CB
:100E2000009799F40F3F2FEF120761F0000F111F89
:100E3000000F111FEA89FB89E00FF11F1182108258
:100E400013821282C12CD12CECC0F50186819781CE
:100E50008F3FFFEF9F0729F40F3F2FEF120779F421
:100E60001DC0A3E0880F991FAA95E1F7AA84BB844F
:100E7000A80EB91EA114B10409F0BBCFEDCF000F2D
:100E8000111F000F111FEA89FB89E00FF11F8081FC
:100E900091819A01281B390B338322836A01C1C0D7
:100EA0008A819B814817590749F4FA018081992763
:100EB00087FD90950E94830C892B59F18881998137
:100EC000C816D90651F4F60131978081992787FD1C
:100ED00090950E94830C892BE1F0F601808199277F
:100EE00087FD90950E94830CF6012181892B49F49E
:100EF000822F992787FD90950E94830C892B49F4B6
:100F000010C0822F992787FD90950E94830C892B12
:100F100041F4F801828193818236910509F092CFE4
:100F200080C0F801828193818236910509F079C0F1
:100F300089CF8A819B8102C088819981C816D90690
:100F400009F46FC07FCFFFEFCF1ADF0A6AC0F60146
:100F50009080AA84BB84F801C281D381E3E0CC0FE6
:100F6000DD1FEA95E1F7CA0DDB1D092D112707FDED
:100F70001095888199818630F1E09F0779F088305B
:100F800021E0920799F48A819B81081719078CF058
:100F90008C819D818017910764F035C0692D8A810D
:100FA0009B810E948B00892B21F02DC00817190707
:100FB00051F10E80DF81C02DCF3F3FEFD30751F1BC
:100FC00073E0CC0FDD1F7A95E1F7CA0DDB1D20978A
:100FD00081F620C04FEFC41AD40A23C0FA01608101
:100FE000F801828193810E948B00892B99F72ACF87
:100FF000F6018081992787FD90958E159F0551F305
:1010000021CF6C010EC0F5E0EF16F1E0FF0609F00C
:1010100019CFE0CF27E0E21621E0F20609F012CF67
:10102000D9CFC601DF91CF911F910F91FF90EF9023
:10103000DF90CF90BF90AF909F908F907F906F90F8
:101040005F904F903F902F900895CF93DF93EC01E6
:101050000097B9F08A859B85009711F00E94B00A2D
:101060008E899F89009711F00E94B00A8A899B8916
:10107000009711F00E94B00ACE01DF91CF910C943D
:10108000B00ADF91CF910895EF92FF920F931F93D3
:10109000CF93DF9300D0CDB7DEB77C018B018AE11F
:1010A00090E00E94150A89839A83A981BA811396D8
:1010B0001C921E92129711961C921E921496EC92FC
:1010C00014971596FC92F70101900020E9F73197EB
:1010D000EE19FF09A981BA811D96FC93EE931C9726
:1010E000CF0173E0880F991F7A95E1F70E94150AE6
:1010F000E981FA818287938717861686138A128A76
:10110000118A108A62E071E0CF010E946C01A9810E
:10111000BA8117969C938E93169759961C930E93AB
:10112000589787E190E00E94150AE981FA81868B41
:10113000978B0E94140C892BD9F589819A810E9482
:101140002505A981BA8116962D913C91179763E0E8
:10115000220F331F6A95E1F71A96ED91FC911B97C8
:10116000E20FF31F938382831496ED91FC91159700
:101170008081882329F062EC71E0CD010E94B901E1
:10118000E981FA8100891189000F111F000F111FD9
:10119000C8010E94150AA981BA8152968C93529770
:1011A00053969C93A80160E070E00E949F0C06C0DB
:1011B00089819A810E9425081A82198289819A81DF
:1011C0000F900F90DF91CF911F910F91FF90EF90B3
:1011D0000895CF93DF93EC01AB017B836A83FB011E
:1011E00001900020E9F73197E61BF70BE60FF71F98
:1011F000F983E8831D8A1C8A6A857B8520E030E0BC
:101200000E948205009739F021E030E04881598141
:101210008417950711F020E030E0C901DF91CF91EC
:1012200008956F927F928F929F92AF92BF92CF92CA
:10123000DF92EF92FF920F931F93CF93DF93EC0116
:101240007B016A014901AE80BF806417750718F001
:1012500020E030E03FC07B836A835983488301C02C
:101260007901C7011AC01D8A1C8A3501E3E0660CAA
:10127000771CEA95E1F76A857B85660D771D20E08E
:1012800030E0AC01CE010E948205009751F0EA8562
:10129000FB85E60DF71DA680B7802FEFA216B206DC
:1012A00011F797012F5F3F4F009781F42C153D05F3
:1012B000B9F6CECFF401F182E0820115110519F0E3
:1012C000F8019183808321E030E004C0811491040F
:1012D00089F7F3CFC901DF91CF911F910F91FF9053
:1012E000EF90DF90CF90BF90AF909F908F907F90C6
:1012F0006F9008950F931F93FB0101900020E9F771
:101300003197E61BF70BE60FF71F89019A01AF0132
:101310000E9411091F910F910895FC018089918904
:10132000089577FD1EC0DC0150962D913C91519798
:1013300062177307B4F4660F771F660F771F529614
:10134000ED91FC915397E60FF71F80819181A28167
:10135000B381FA0180839183A283B38321E030E0DB
:1013600002C020E030E0C90108950F931F93CF938E
:10137000DF93CDB7DEB7C254D1090FB6F894DEBF04
:101380000FBECDBF23961FAE1EAE2397BE016F5B6F
:101390007F4F80E191E00E9444088C010097E9F0C2
:1013A00067E171E0CE0101960E94A60CBE016F5F5D
:1013B0007F4FC8010E94E908892B19F083E291E070
:1013C00002C080E291E09F938F930E94AD0C0F903A
:1013D0000F90C8010E94250814C023968EAD9FADC2
:1013E0002397009711F486E091E09F938F9389E211
:1013F00091E09F938F930E94AD0C0F900F900F90F0
:101400000F9080E090E0CE5BDF4F0FB6F894DEBF28
:101410000FBECDBFDF91CF911F910F910895EE0FB9
:10142000FF1F0590F491E02D09940F931F93CF9324
:10143000DF938230910510F482E090E0E091DA01D0
:10144000F091DB0120E030E0C0E0D0E023C040813B
:10145000518148175907A8F04817590761F482814C
:101460009381209719F09B838A832EC09093DB0190
:101470008093DA0129C02115310529F0421753075D
:1014800010F0A90102C0BE01DF0102811381EF014A
:101490009A01F8013097D9F62115310509F1281B79
:1014A000390B2430310590F412968D919C9113974D
:1014B0006115710521F0FB019383828304C0909331
:1014C000DB018093DA01FD01329644C0FD01E20F99
:1014D000F31F81939193225031092D933C933AC08D
:1014E0002091D8013091D901232B41F420910201A0
:1014F000309103013093D9012093D801209100014C
:10150000309101012115310541F42DB73EB74091CD
:10151000040150910501241B350BE091D801F09195
:10152000D901E217F307A0F42E1B3F0B2817390748
:1015300078F0AC014E5F5F4F2417350748F04E0F2F
:101540005F1F5093D9014093D8018193919302C0BA
:10155000E0E0F0E0CF01DF91CF911F910F9108956E
:10156000EF92FF920F931F93CF93DF93009709F4AD
:101570008EC0DC01129713961C921E921297E09077
:10158000DA01F090DB01E114F10489F42D913C9132
:101590001197280F391F8091D8019091D901821796
:1015A000930789F5B093D901A093D80170C0E701E2
:1015B00020E030E001C0EA01CA17DB0738F44A81B5
:1015C0005B819E0141155105B1F722C0AC0142502B
:1015D0005109FA01D383C28300811181BC01600FDC
:1015E000711F6C177D0761F468817981600F711F2D
:1015F0006E5F7F4F718360836A817B8173836283B7
:101600002115310529F4B093DB01A093DA013FC025
:10161000F901B383A283E90149915991C40FD51F00
:10162000AC17BD0771F4DC019E918E91840F951F5C
:1016300002969183808312968D919C911397938348
:101640008283A0E0B0E002C0D7017C01F701828173
:1016500093810097C9F7C701029620813181820FDB
:10166000931F2091D8013091D9012817390779F4B7
:10167000109729F41092DB011092DA0104C013963E
:101680001C921E921297F092D901E092D801CDB728
:10169000DEB7E6E00C94690FA0E0B0E0E2E5FBE025
:1016A0000C94470FEC01009729F4CB010E94150A16
:1016B000EC01B4C0DC01A60FB71FFC013297AE17D6
:1016C000BF0718F4C0E0D0E0A9C00081118106175F
:1016D0001707B0F00530110508F4A0C0C801049741
:1016E0008617970708F49AC002501109061B170BBA
:1016F0000D931D9371836083CD010E94B00A8EC04B
:101700006B01C01AD10A7C01E00EF11EE091DA01F2
:10171000F091DB0120E030E080E090E048C0EE1581
:10172000FF05D1F580809180540142E0A40EB11CE8
:10173000AC14BD0488F17401EC18FD08670122E0C7
:10174000C20ED11C9E012250310945E0C416D104BD
:1017500078F04281538113965C934E9312971196C1
:10176000FC92EE92F901718360833A2F2B2F09C00E
:101770000E5F1F4F080D191DD9010D931C93328167
:101780002381009721F0FC013283238347C03093EB
:10179000DA012093DB0142C080819181281739074B
:1017A00008F49C0152814381CF01E52FF42F30973B
:1017B00009F0B5CF8091D8019091D9018E159F0580
:1017C000F1F426173707D8F48091000190910101B8
:1017D000009741F48DB79EB7209104013091050127
:1017E000821B930BA817B90708F06CCFB093D901EF
:1017F000A093D801FE013297718360830FC0CB01A3
:101800000E94150A7C01009709F45CCFA801BE0173
:101810000E94960CCE010E94B00AE701CE01CDB71E
:10182000DEB7ECE00C94630FDC012D923D924D92FB
:101830005D926D927D928D929D92AD92BD92CD9270
:10184000DD92ED92FD920D931D93CD93DD93FF916B
:10185000EF918DB78D938EB78D938FB78D93ED9359
:10186000FD93882799270994DC01CB0181309105EC
:10187000811D2D903D904D905D906D907D908D904F
:101880009D90AD90BD90CD90DD90ED90FD900D912F
:101890001D91CD91DD91ED91FD910D90F894FEBFDC
:1018A0000FBEEDBFED91FD910994911106C08053DB
:1018B0008A5010F0865C06C00895992788270895FD
:1018C00085FDFBCF80629111F8CF81568A51E0F7F8
:1018D00008959111F2CF80538A5028F0865C80627F
:1018E00081568650B8F708959111E7CF8F3711F0E0
:1018F0008052D8F70895803209F09111DECF8052DE
:101900008F55E0F708959111D8CF803219F08950A2
:101910008550D0F708959111D0CF81528E55E0F7C0
:101920008158C3DF8823C1F781E00895FB01DC0102
:1019300002C001900D9241505040D8F70895DC014B
:1019400001C06D9341505040E0F70895FB01DC0168
:1019500001900D920020E1F70895A2E0B0E0E3EBE2
:10196000FCE00C94510FFE01379661917191FA835E
:10197000E983AF018091DE019091DF010E94C40CE8
:101980002296E2E00C946D0FACE0B0E0EAECFCE0F3
:101990000C94410F7C016B018A01FC0117821682B5
:1019A000838181FFC7C188248394912C8C0E9D1E56
:1019B000F7019381F60193FD859193FF81916F016A
:1019C000882309F4B3C1853239F493FD859193FFDF
:1019D00081916F01853229F4B70190E00E94B70E22
:1019E000E7CF712C312C20E02032A8F48B3261F04B
:1019F00028F4803251F0833271F40BC08D3239F00B
:101A0000803349F4216028C02260246025C028600A
:101A100023C0206121C027FD27C0382F30533A3022
:101A200078F426FF06C0FAE07F9E300D1124732E55
:101A300013C08AE0389E300D1124332E20620CC072
:101A40008E3221F426FD72C1206406C08C3611F45A
:101A5000206802C0883641F4F60193FD859193FF1A
:101A600081916F018111C0CF982F9554933018F058
:101A70009052933028F40C5F1F4FFFE3F9830DC0A1
:101A8000833631F0833771F0833509F05EC023C0AF
:101A9000F801808189830E5F1F4F66246394712C47
:101AA000540115C02801F2E04F0E511CF801A0802E
:101AB000B18026FF03C0672D70E002C06FEF7FEF9B
:101AC000C5012C870E94AC0E3C0182012C856FE77A
:101AD000262E222218C02801F2E04F0E511CF801D8
:101AE000A080B18026FF03C0672D70E002C06FEFB9
:101AF0007FEFC5012C870E94A10E3C012C8550E888
:101B0000252E222A820123FC1CC006C0B70180E2D8
:101B100090E00E94B70E3A94832D90E06816790603
:101B2000A8F30FC0F50127FC859127FE81915F0185
:101B3000B70190E00E94B70E31103A94F1E06F1AAD
:101B400071086114710471F7EEC0843611F08936A2
:101B500041F5F80127FF07C060817181828193817F
:101B60000C5F1F4F08C060817181882777FD8095C9
:101B7000982F0E5F1F4F4FE6642E622297FF09C019
:101B800090958095709561957F4F8F4F9F4FF0E8AE
:101B90006F2A2AE030E0A4010E94E30EA82EA818C4
:101BA00044C0853731F43FEEB32EB2222AE030E054
:101BB00024C099EFB92EB2228F36B9F020F48835BF
:101BC00009F0B4C00DC0803721F0883709F0AEC0ED
:101BD00002C020E1B22AB4FE0BC084E0B82A08C0DB
:101BE00024FF09C0E6E0BE2A06C028E030E005C0B8
:101BF00020E130E002C020E132E0F801B7FE07C08A
:101C000060817181828193810C5F1F4F06C060816A
:101C1000718180E090E00E5F1F4FA4010E94E30EEF
:101C2000A82EA8188FE7682E6B2066FE0BC0362DF5
:101C30003E7FA71450F464FE0AC062FC08C0362D33
:101C40003E7E05C0BA2C362D03C0BA2C01C0B72C7D
:101C500034FF0DC0FE01EA0DF11D8081803311F4C7
:101C6000397E09C032FF06C0B394B39404C0832FF9
:101C7000867809F0B39433FD14C030FF0FC07A2C7E
:101C8000B31460F4730C7B18B32C08C0B70180E266
:101C900090E03C870E94B70EB3943C85B314B0F338
:101CA00004C0B31410F43B1801C0312C34FF12C02F
:101CB000B70180E390E03C870E94B70E3C8532FF7D
:101CC0001EC031FF03C088E590E002C088E790E0C5
:101CD000B7010CC0832F867891F031FD02C080E2FD
:101CE00001C08BE237FD8DE2B70190E00E94B70E94
:101CF00006C0B70180E390E00E94B70E7A94A71463
:101D0000C0F3AA94F401EA0DF11DB701808190E0BF
:101D10000E94B70EA110F5CF06C0B70180E290E097
:101D20000E94B70E3A943110F8CF42CEF7012681C7
:101D3000378102C02FEF3FEFC9012C96E2E10C94EE
:101D40005D0FFC010590615070400110D8F780953F
:101D500090958E0F9F1F0895FC0161507040019077
:101D60000110D8F7809590958E0F9F1F08950F93BF
:101D70001F93CF93DF938C01EB018B8181FD03C017
:101D80000FEF1FEF1AC082FF0DC02E813F818C81A3
:101D90009D812817390764F4E881F9810193F9835B
:101DA000E88306C0E885F985802F0995892B41F7DE
:101DB0008E819F8101969F838E83C801DF91CF9191
:101DC0001F910F910895FA01AA27283051F120316F
:101DD00081F1E8946F936E7F6E5F7F4F8F4F9F4FBF
:101DE000AF4FB1E03ED0B4E03CD0670F781F891F01
:101DF0009A1FA11D680F791F8A1F911DA11D6A0FCF
:101E0000711D811D911DA11D20D009F468943F9181
:101E10002AE0269F11243019305D3193DEF6CF0180
:101E20000895462F4770405D4193B3E00FD0C9F746
:101E3000F6CF462F4F70405D4A3318F0495D31FDB3
:101E40004052419302D0A9F7EACFB4E0A695979506
:101E5000879577956795BA95C9F7009761057105DC
:101E600008959B01AC010A2E069457954795379526
:101E70002795BA95C9F7620F731F841F951FA01D80
:101E800008952F923F924F925F926F927F928F921E
:101E90009F92AF92BF92CF92DF92EF92FF920F93F9
:101EA0001F93CF93DF93CDB7DEB7CA1BDB0B0FB603
:101EB000F894DEBF0FBECDBF09942A8839884888C0
:101EC0005F846E847D848C849B84AA84B984C88456
:101ED000DF80EE80FD800C811B81AA81B981CE0F4D
:101EE000D11D0FB6F894DEBF0FBECDBFED01089532
:041EF000F894FFCF94
:101EF4000000E2012000756E646566696E65640029
:101F0400787B327D797900417878797978784100E5
:101F14006E6F206D6174636800636F6D70696C61CE
:101F240074696F6E206572726F72205B25735D2118
:101F34000A006C65747465722065787065637465F5
:101F44006400657870656374656420706172656EA1
:101F540000656D70747920636C61737300696E76CB
:101F6400616C69642072616E67650063616E6E6F97
:101F7400742075736520636861726163746572208F
:101F8400636C617373657320696E2072616E67653B
:101F940073006E756D626572206578706563746533
:101FA40064002C206F72207D2065787065637465F1
:101FB4006400756E65787065637465642063686138
:081FC400726163746572000094
:00000001FF
